{
  "contracts/CrowdFunding.sol": {
    "CrowdFunding": {
      "abi": [
        {
          "inputs": [],
          "stateMutability": "nonpayable",
          "type": "constructor"
        },
        {
          "anonymous": false,
          "inputs": [
            {
              "indexed": false,
              "internalType": "uint256",
              "name": "campaignId",
              "type": "uint256"
            },
            {
              "indexed": false,
              "internalType": "string",
              "name": "title",
              "type": "string"
            },
            {
              "indexed": false,
              "internalType": "uint256",
              "name": "goal",
              "type": "uint256"
            },
            {
              "indexed": false,
              "internalType": "uint256",
              "name": "deadline",
              "type": "uint256"
            }
          ],
          "name": "CampaignCreated",
          "type": "event"
        },
        {
          "anonymous": false,
          "inputs": [
            {
              "indexed": false,
              "internalType": "uint256",
              "name": "campaignId",
              "type": "uint256"
            },
            {
              "indexed": false,
              "internalType": "uint256",
              "name": "amountRaised",
              "type": "uint256"
            },
            {
              "indexed": false,
              "internalType": "bool",
              "name": "goalMet",
              "type": "bool"
            }
          ],
          "name": "CampaignEnded",
          "type": "event"
        },
        {
          "anonymous": false,
          "inputs": [
            {
              "indexed": false,
              "internalType": "uint256",
              "name": "campaignId",
              "type": "uint256"
            },
            {
              "indexed": false,
              "internalType": "address",
              "name": "donor",
              "type": "address"
            },
            {
              "indexed": false,
              "internalType": "uint256",
              "name": "amount",
              "type": "uint256"
            }
          ],
          "name": "DonationReceived",
          "type": "event"
        },
        {
          "inputs": [],
          "name": "campaignCount",
          "outputs": [
            {
              "internalType": "uint256",
              "name": "",
              "type": "uint256"
            }
          ],
          "stateMutability": "view",
          "type": "function"
        },
        {
          "inputs": [
            {
              "internalType": "uint256",
              "name": "",
              "type": "uint256"
            }
          ],
          "name": "campaigns",
          "outputs": [
            {
              "internalType": "string",
              "name": "title",
              "type": "string"
            },
            {
              "internalType": "string",
              "name": "description",
              "type": "string"
            },
            {
              "internalType": "address payable",
              "name": "benefactor",
              "type": "address"
            },
            {
              "internalType": "uint256",
              "name": "goal",
              "type": "uint256"
            },
            {
              "internalType": "uint256",
              "name": "deadline",
              "type": "uint256"
            },
            {
              "internalType": "uint256",
              "name": "amountRaised",
              "type": "uint256"
            },
            {
              "internalType": "bool",
              "name": "ended",
              "type": "bool"
            }
          ],
          "stateMutability": "view",
          "type": "function"
        },
        {
          "inputs": [
            {
              "internalType": "string",
              "name": "_title",
              "type": "string"
            },
            {
              "internalType": "string",
              "name": "_description",
              "type": "string"
            },
            {
              "internalType": "address payable",
              "name": "_benefactor",
              "type": "address"
            },
            {
              "internalType": "uint256",
              "name": "_goal",
              "type": "uint256"
            },
            {
              "internalType": "uint256",
              "name": "_duration",
              "type": "uint256"
            }
          ],
          "name": "createCampaign",
          "outputs": [],
          "stateMutability": "nonpayable",
          "type": "function"
        },
        {
          "inputs": [
            {
              "internalType": "uint256",
              "name": "_campaignId",
              "type": "uint256"
            }
          ],
          "name": "donateToCampaign",
          "outputs": [],
          "stateMutability": "payable",
          "type": "function"
        },
        {
          "inputs": [
            {
              "internalType": "uint256",
              "name": "_campaignId",
              "type": "uint256"
            }
          ],
          "name": "endCampaign",
          "outputs": [],
          "stateMutability": "nonpayable",
          "type": "function"
        },
        {
          "inputs": [],
          "name": "owner",
          "outputs": [
            {
              "internalType": "address",
              "name": "",
              "type": "address"
            }
          ],
          "stateMutability": "view",
          "type": "function"
        },
        {
          "inputs": [],
          "name": "withdraw",
          "outputs": [],
          "stateMutability": "nonpayable",
          "type": "function"
        }
      ],
      "evm": {
        "bytecode": {
          "linkReferences": {},
          "object": "608060405234801561001057600080fd5b5033600260006101000a81548173ffffffffffffffffffffffffffffffffffffffff021916908373ffffffffffffffffffffffffffffffffffffffff16021790555061143c806100616000396000f3fe6080604052600436106100705760003560e01c80637274e30d1161004e5780637274e30d146100eb5780638da5cb5b146101165780639304d12414610141578063dd0408ae1461016a57610070565b8063141961bc146100755780633ccfd60b146100b857806342a4fda8146100cf575b600080fd5b34801561008157600080fd5b5061009c600480360381019061009791906108df565b610193565b6040516100af9796959493929190610a07565b60405180910390f35b3480156100c457600080fd5b506100cd610312565b005b6100e960048036038101906100e491906108df565b61040d565b005b3480156100f757600080fd5b50610100610519565b60405161010d9190610a84565b60405180910390f35b34801561012257600080fd5b5061012b61051f565b6040516101389190610ac0565b60405180910390f35b34801561014d57600080fd5b5061016860048036038101906101639190610c3c565b610545565b005b34801561017657600080fd5b50610191600480360381019061018c91906108df565b61070c565b005b60006020528060005260406000206000915090508060000180546101b690610d1e565b80601f01602080910402602001604051908101604052809291908181526020018280546101e290610d1e565b801561022f5780601f106102045761010080835404028352916020019161022f565b820191906000526020600020905b81548152906001019060200180831161021257829003601f168201915b50505050509080600101805461024490610d1e565b80601f016020809104026020016040519081016040528092919081815260200182805461027090610d1e565b80156102bd5780601f10610292576101008083540402835291602001916102bd565b820191906000526020600020905b8154815290600101906020018083116102a057829003601f168201915b5050505050908060020160009054906101000a900473ffffffffffffffffffffffffffffffffffffffff16908060030154908060040154908060050154908060060160009054906101000a900460ff16905087565b600260009054906101000a900473ffffffffffffffffffffffffffffffffffffffff1673ffffffffffffffffffffffffffffffffffffffff163373ffffffffffffffffffffffffffffffffffffffff16146103a2576040517f08c379a000000000000000000000000000000000000000000000000000000000815260040161039990610d9b565b60405180910390fd5b600260009054906101000a900473ffffffffffffffffffffffffffffffffffffffff1673ffffffffffffffffffffffffffffffffffffffff166108fc479081150290604051600060405180830381858888f1935050505015801561040a573d6000803e3d6000fd5b50565b80600080828152602001908152602001600020600401544210610465576040517f08c379a000000000000000000000000000000000000000000000000000000000815260040161045c90610e07565b60405180910390fd5b60008060008481526020019081526020016000209050600034116104be576040517f08c379a00000000000000000000000000000000000000000000000000000000081526004016104b590610e99565b60405180910390fd5b348160050160008282546104d29190610ee8565b925050819055507f0b5b4c52969ff7329ecf7ee536409fda87812b15a8622bc6e8cdeab3aee14a2683333460405161050c93929190610f1c565b60405180910390a1505050565b60015481565b600260009054906101000a900473ffffffffffffffffffffffffffffffffffffffff1681565b60008211610588576040517f08c379a000000000000000000000000000000000000000000000000000000000815260040161057f90610f9f565b60405180910390fd5b6001600081548092919061059b90610fbf565b9190505550600081426105ae9190610ee8565b90506040518060e001604052808781526020018681526020018573ffffffffffffffffffffffffffffffffffffffff16815260200184815260200182815260200160008152602001600015158152506000806001548152602001908152602001600020600082015181600001908161062691906111b3565b50602082015181600101908161063c91906111b3565b5060408201518160020160006101000a81548173ffffffffffffffffffffffffffffffffffffffff021916908373ffffffffffffffffffffffffffffffffffffffff160217905550606082015181600301556080820151816004015560a0820151816005015560c08201518160060160006101000a81548160ff0219169083151502179055509050507f02fe3fddd43aad14ae5c30d5d694f19ecb065dfde85bb591b91e8af1448724d26001548785846040516106fc9493929190611285565b60405180910390a1505050505050565b600080600083815260200190815260200160002090508060040154421015610769576040517f08c379a000000000000000000000000000000000000000000000000000000000815260040161076090611343565b60405180910390fd5b8060060160009054906101000a900460ff16156107bb576040517f08c379a00000000000000000000000000000000000000000000000000000000081526004016107b2906113af565b60405180910390fd5b60018160060160006101000a81548160ff0219169083151502179055508060020160009054906101000a900473ffffffffffffffffffffffffffffffffffffffff1673ffffffffffffffffffffffffffffffffffffffff166108fc82600501549081150290604051600060405180830381858888f19350505050158015610846573d6000803e3d6000fd5b507f2daeb9036523684d0097530a448d8d042ff2da258e6f6b7f30184fa0fd7bcf0a828260050154836003015484600501541015604051610889939291906113cf565b60405180910390a15050565b6000604051905090565b600080fd5b600080fd5b6000819050919050565b6108bc816108a9565b81146108c757600080fd5b50565b6000813590506108d9816108b3565b92915050565b6000602082840312156108f5576108f461089f565b5b6000610903848285016108ca565b91505092915050565b600081519050919050565b600082825260208201905092915050565b60005b8381101561094657808201518184015260208101905061092b565b60008484015250505050565b6000601f19601f8301169050919050565b600061096e8261090c565b6109788185610917565b9350610988818560208601610928565b61099181610952565b840191505092915050565b600073ffffffffffffffffffffffffffffffffffffffff82169050919050565b60006109c78261099c565b9050919050565b6109d7816109bc565b82525050565b6109e6816108a9565b82525050565b60008115159050919050565b610a01816109ec565b82525050565b600060e0820190508181036000830152610a21818a610963565b90508181036020830152610a358189610963565b9050610a4460408301886109ce565b610a5160608301876109dd565b610a5e60808301866109dd565b610a6b60a08301856109dd565b610a7860c08301846109f8565b98975050505050505050565b6000602082019050610a9960008301846109dd565b92915050565b6000610aaa8261099c565b9050919050565b610aba81610a9f565b82525050565b6000602082019050610ad56000830184610ab1565b92915050565b600080fd5b600080fd5b7f4e487b7100000000000000000000000000000000000000000000000000000000600052604160045260246000fd5b610b1d82610952565b810181811067ffffffffffffffff82111715610b3c57610b3b610ae5565b5b80604052505050565b6000610b4f610895565b9050610b5b8282610b14565b919050565b600067ffffffffffffffff821115610b7b57610b7a610ae5565b5b610b8482610952565b9050602081019050919050565b82818337600083830152505050565b6000610bb3610bae84610b60565b610b45565b905082815260208101848484011115610bcf57610bce610ae0565b5b610bda848285610b91565b509392505050565b600082601f830112610bf757610bf6610adb565b5b8135610c07848260208601610ba0565b91505092915050565b610c19816109bc565b8114610c2457600080fd5b50565b600081359050610c3681610c10565b92915050565b600080600080600060a08688031215610c5857610c5761089f565b5b600086013567ffffffffffffffff811115610c7657610c756108a4565b5b610c8288828901610be2565b955050602086013567ffffffffffffffff811115610ca357610ca26108a4565b5b610caf88828901610be2565b9450506040610cc088828901610c27565b9350506060610cd1888289016108ca565b9250506080610ce2888289016108ca565b9150509295509295909350565b7f4e487b7100000000000000000000000000000000000000000000000000000000600052602260045260246000fd5b60006002820490506001821680610d3657607f821691505b602082108103610d4957610d48610cef565b5b50919050565b7f4e6f742074686520636f6e7472616374206f776e657200000000000000000000600082015250565b6000610d85601683610917565b9150610d9082610d4f565b602082019050919050565b60006020820190508181036000830152610db481610d78565b9050919050565b7f43616d706169676e2068617320656e6465640000000000000000000000000000600082015250565b6000610df1601283610917565b9150610dfc82610dbb565b602082019050919050565b60006020820190508181036000830152610e2081610de4565b9050919050565b7f446f6e6174696f6e20616d6f756e742073686f756c642062652067726561746560008201527f72207468616e207a65726f000000000000000000000000000000000000000000602082015250565b6000610e83602b83610917565b9150610e8e82610e27565b604082019050919050565b60006020820190508181036000830152610eb281610e76565b9050919050565b7f4e487b7100000000000000000000000000000000000000000000000000000000600052601160045260246000fd5b6000610ef3826108a9565b9150610efe836108a9565b9250828201905080821115610f1657610f15610eb9565b5b92915050565b6000606082019050610f3160008301866109dd565b610f3e6020830185610ab1565b610f4b60408301846109dd565b949350505050565b7f476f616c2073686f756c642062652067726561746572207468616e207a65726f600082015250565b6000610f89602083610917565b9150610f9482610f53565b602082019050919050565b60006020820190508181036000830152610fb881610f7c565b9050919050565b6000610fca826108a9565b91507fffffffffffffffffffffffffffffffffffffffffffffffffffffffffffffffff8203610ffc57610ffb610eb9565b5b600182019050919050565b60008190508160005260206000209050919050565b60006020601f8301049050919050565b600082821b905092915050565b6000600883026110697fffffffffffffffffffffffffffffffffffffffffffffffffffffffffffffffff8261102c565b611073868361102c565b95508019841693508086168417925050509392505050565b6000819050919050565b60006110b06110ab6110a6846108a9565b61108b565b6108a9565b9050919050565b6000819050919050565b6110ca83611095565b6110de6110d6826110b7565b848454611039565b825550505050565b600090565b6110f36110e6565b6110fe8184846110c1565b505050565b5b81811015611122576111176000826110eb565b600181019050611104565b5050565b601f8211156111675761113881611007565b6111418461101c565b81016020851015611150578190505b61116461115c8561101c565b830182611103565b50505b505050565b600082821c905092915050565b600061118a6000198460080261116c565b1980831691505092915050565b60006111a38383611179565b9150826002028217905092915050565b6111bc8261090c565b67ffffffffffffffff8111156111d5576111d4610ae5565b5b6111df8254610d1e565b6111ea828285611126565b600060209050601f83116001811461121d576000841561120b578287015190505b6112158582611197565b86555061127d565b601f19841661122b86611007565b60005b828110156112535784890151825560018201915060208501945060208101905061122e565b86831015611270578489015161126c601f891682611179565b8355505b6001600288020188555050505b505050505050565b600060808201905061129a60008301876109dd565b81810360208301526112ac8186610963565b90506112bb60408301856109dd565b6112c860608301846109dd565b95945050505050565b7f43616d706169676e20646561646c696e6520686173206e6f742079657420706160008201527f7373656400000000000000000000000000000000000000000000000000000000602082015250565b600061132d602483610917565b9150611338826112d1565b604082019050919050565b6000602082019050818103600083015261135c81611320565b9050919050565b7f43616d706169676e2068617320616c726561647920656e646564000000000000600082015250565b6000611399601a83610917565b91506113a482611363565b602082019050919050565b600060208201905081810360008301526113c88161138c565b9050919050565b60006060820190506113e460008301866109dd565b6113f160208301856109dd565b6113fe60408301846109f8565b94935050505056fea2646970667358221220d147c4d8da6052810859cffa5f20aa23a45a1368798c872453f61d365473e1e864736f6c63430008180033",
          "opcodes": "PUSH1 0x80 PUSH1 0x40 MSTORE CALLVALUE DUP1 ISZERO PUSH2 0x10 JUMPI PUSH1 0x0 DUP1 REVERT JUMPDEST POP CALLER PUSH1 0x2 PUSH1 0x0 PUSH2 0x100 EXP DUP2 SLOAD DUP2 PUSH20 0xFFFFFFFFFFFFFFFFFFFFFFFFFFFFFFFFFFFFFFFF MUL NOT AND SWAP1 DUP4 PUSH20 0xFFFFFFFFFFFFFFFFFFFFFFFFFFFFFFFFFFFFFFFF AND MUL OR SWAP1 SSTORE POP PUSH2 0x143C DUP1 PUSH2 0x61 PUSH1 0x0 CODECOPY PUSH1 0x0 RETURN INVALID PUSH1 0x80 PUSH1 0x40 MSTORE PUSH1 0x4 CALLDATASIZE LT PUSH2 0x70 JUMPI PUSH1 0x0 CALLDATALOAD PUSH1 0xE0 SHR DUP1 PUSH4 0x7274E30D GT PUSH2 0x4E JUMPI DUP1 PUSH4 0x7274E30D EQ PUSH2 0xEB JUMPI DUP1 PUSH4 0x8DA5CB5B EQ PUSH2 0x116 JUMPI DUP1 PUSH4 0x9304D124 EQ PUSH2 0x141 JUMPI DUP1 PUSH4 0xDD0408AE EQ PUSH2 0x16A JUMPI PUSH2 0x70 JUMP JUMPDEST DUP1 PUSH4 0x141961BC EQ PUSH2 0x75 JUMPI DUP1 PUSH4 0x3CCFD60B EQ PUSH2 0xB8 JUMPI DUP1 PUSH4 0x42A4FDA8 EQ PUSH2 0xCF JUMPI JUMPDEST PUSH1 0x0 DUP1 REVERT JUMPDEST CALLVALUE DUP1 ISZERO PUSH2 0x81 JUMPI PUSH1 0x0 DUP1 REVERT JUMPDEST POP PUSH2 0x9C PUSH1 0x4 DUP1 CALLDATASIZE SUB DUP2 ADD SWAP1 PUSH2 0x97 SWAP2 SWAP1 PUSH2 0x8DF JUMP JUMPDEST PUSH2 0x193 JUMP JUMPDEST PUSH1 0x40 MLOAD PUSH2 0xAF SWAP8 SWAP7 SWAP6 SWAP5 SWAP4 SWAP3 SWAP2 SWAP1 PUSH2 0xA07 JUMP JUMPDEST PUSH1 0x40 MLOAD DUP1 SWAP2 SUB SWAP1 RETURN JUMPDEST CALLVALUE DUP1 ISZERO PUSH2 0xC4 JUMPI PUSH1 0x0 DUP1 REVERT JUMPDEST POP PUSH2 0xCD PUSH2 0x312 JUMP JUMPDEST STOP JUMPDEST PUSH2 0xE9 PUSH1 0x4 DUP1 CALLDATASIZE SUB DUP2 ADD SWAP1 PUSH2 0xE4 SWAP2 SWAP1 PUSH2 0x8DF JUMP JUMPDEST PUSH2 0x40D JUMP JUMPDEST STOP JUMPDEST CALLVALUE DUP1 ISZERO PUSH2 0xF7 JUMPI PUSH1 0x0 DUP1 REVERT JUMPDEST POP PUSH2 0x100 PUSH2 0x519 JUMP JUMPDEST PUSH1 0x40 MLOAD PUSH2 0x10D SWAP2 SWAP1 PUSH2 0xA84 JUMP JUMPDEST PUSH1 0x40 MLOAD DUP1 SWAP2 SUB SWAP1 RETURN JUMPDEST CALLVALUE DUP1 ISZERO PUSH2 0x122 JUMPI PUSH1 0x0 DUP1 REVERT JUMPDEST POP PUSH2 0x12B PUSH2 0x51F JUMP JUMPDEST PUSH1 0x40 MLOAD PUSH2 0x138 SWAP2 SWAP1 PUSH2 0xAC0 JUMP JUMPDEST PUSH1 0x40 MLOAD DUP1 SWAP2 SUB SWAP1 RETURN JUMPDEST CALLVALUE DUP1 ISZERO PUSH2 0x14D JUMPI PUSH1 0x0 DUP1 REVERT JUMPDEST POP PUSH2 0x168 PUSH1 0x4 DUP1 CALLDATASIZE SUB DUP2 ADD SWAP1 PUSH2 0x163 SWAP2 SWAP1 PUSH2 0xC3C JUMP JUMPDEST PUSH2 0x545 JUMP JUMPDEST STOP JUMPDEST CALLVALUE DUP1 ISZERO PUSH2 0x176 JUMPI PUSH1 0x0 DUP1 REVERT JUMPDEST POP PUSH2 0x191 PUSH1 0x4 DUP1 CALLDATASIZE SUB DUP2 ADD SWAP1 PUSH2 0x18C SWAP2 SWAP1 PUSH2 0x8DF JUMP JUMPDEST PUSH2 0x70C JUMP JUMPDEST STOP JUMPDEST PUSH1 0x0 PUSH1 0x20 MSTORE DUP1 PUSH1 0x0 MSTORE PUSH1 0x40 PUSH1 0x0 KECCAK256 PUSH1 0x0 SWAP2 POP SWAP1 POP DUP1 PUSH1 0x0 ADD DUP1 SLOAD PUSH2 0x1B6 SWAP1 PUSH2 0xD1E JUMP JUMPDEST DUP1 PUSH1 0x1F ADD PUSH1 0x20 DUP1 SWAP2 DIV MUL PUSH1 0x20 ADD PUSH1 0x40 MLOAD SWAP1 DUP2 ADD PUSH1 0x40 MSTORE DUP1 SWAP3 SWAP2 SWAP1 DUP2 DUP2 MSTORE PUSH1 0x20 ADD DUP3 DUP1 SLOAD PUSH2 0x1E2 SWAP1 PUSH2 0xD1E JUMP JUMPDEST DUP1 ISZERO PUSH2 0x22F JUMPI DUP1 PUSH1 0x1F LT PUSH2 0x204 JUMPI PUSH2 0x100 DUP1 DUP4 SLOAD DIV MUL DUP4 MSTORE SWAP2 PUSH1 0x20 ADD SWAP2 PUSH2 0x22F JUMP JUMPDEST DUP3 ADD SWAP2 SWAP1 PUSH1 0x0 MSTORE PUSH1 0x20 PUSH1 0x0 KECCAK256 SWAP1 JUMPDEST DUP2 SLOAD DUP2 MSTORE SWAP1 PUSH1 0x1 ADD SWAP1 PUSH1 0x20 ADD DUP1 DUP4 GT PUSH2 0x212 JUMPI DUP3 SWAP1 SUB PUSH1 0x1F AND DUP3 ADD SWAP2 JUMPDEST POP POP POP POP POP SWAP1 DUP1 PUSH1 0x1 ADD DUP1 SLOAD PUSH2 0x244 SWAP1 PUSH2 0xD1E JUMP JUMPDEST DUP1 PUSH1 0x1F ADD PUSH1 0x20 DUP1 SWAP2 DIV MUL PUSH1 0x20 ADD PUSH1 0x40 MLOAD SWAP1 DUP2 ADD PUSH1 0x40 MSTORE DUP1 SWAP3 SWAP2 SWAP1 DUP2 DUP2 MSTORE PUSH1 0x20 ADD DUP3 DUP1 SLOAD PUSH2 0x270 SWAP1 PUSH2 0xD1E JUMP JUMPDEST DUP1 ISZERO PUSH2 0x2BD JUMPI DUP1 PUSH1 0x1F LT PUSH2 0x292 JUMPI PUSH2 0x100 DUP1 DUP4 SLOAD DIV MUL DUP4 MSTORE SWAP2 PUSH1 0x20 ADD SWAP2 PUSH2 0x2BD JUMP JUMPDEST DUP3 ADD SWAP2 SWAP1 PUSH1 0x0 MSTORE PUSH1 0x20 PUSH1 0x0 KECCAK256 SWAP1 JUMPDEST DUP2 SLOAD DUP2 MSTORE SWAP1 PUSH1 0x1 ADD SWAP1 PUSH1 0x20 ADD DUP1 DUP4 GT PUSH2 0x2A0 JUMPI DUP3 SWAP1 SUB PUSH1 0x1F AND DUP3 ADD SWAP2 JUMPDEST POP POP POP POP POP SWAP1 DUP1 PUSH1 0x2 ADD PUSH1 0x0 SWAP1 SLOAD SWAP1 PUSH2 0x100 EXP SWAP1 DIV PUSH20 0xFFFFFFFFFFFFFFFFFFFFFFFFFFFFFFFFFFFFFFFF AND SWAP1 DUP1 PUSH1 0x3 ADD SLOAD SWAP1 DUP1 PUSH1 0x4 ADD SLOAD SWAP1 DUP1 PUSH1 0x5 ADD SLOAD SWAP1 DUP1 PUSH1 0x6 ADD PUSH1 0x0 SWAP1 SLOAD SWAP1 PUSH2 0x100 EXP SWAP1 DIV PUSH1 0xFF AND SWAP1 POP DUP8 JUMP JUMPDEST PUSH1 0x2 PUSH1 0x0 SWAP1 SLOAD SWAP1 PUSH2 0x100 EXP SWAP1 DIV PUSH20 0xFFFFFFFFFFFFFFFFFFFFFFFFFFFFFFFFFFFFFFFF AND PUSH20 0xFFFFFFFFFFFFFFFFFFFFFFFFFFFFFFFFFFFFFFFF AND CALLER PUSH20 0xFFFFFFFFFFFFFFFFFFFFFFFFFFFFFFFFFFFFFFFF AND EQ PUSH2 0x3A2 JUMPI PUSH1 0x40 MLOAD PUSH32 0x8C379A000000000000000000000000000000000000000000000000000000000 DUP2 MSTORE PUSH1 0x4 ADD PUSH2 0x399 SWAP1 PUSH2 0xD9B JUMP JUMPDEST PUSH1 0x40 MLOAD DUP1 SWAP2 SUB SWAP1 REVERT JUMPDEST PUSH1 0x2 PUSH1 0x0 SWAP1 SLOAD SWAP1 PUSH2 0x100 EXP SWAP1 DIV PUSH20 0xFFFFFFFFFFFFFFFFFFFFFFFFFFFFFFFFFFFFFFFF AND PUSH20 0xFFFFFFFFFFFFFFFFFFFFFFFFFFFFFFFFFFFFFFFF AND PUSH2 0x8FC SELFBALANCE SWAP1 DUP2 ISZERO MUL SWAP1 PUSH1 0x40 MLOAD PUSH1 0x0 PUSH1 0x40 MLOAD DUP1 DUP4 SUB DUP2 DUP6 DUP9 DUP9 CALL SWAP4 POP POP POP POP ISZERO DUP1 ISZERO PUSH2 0x40A JUMPI RETURNDATASIZE PUSH1 0x0 DUP1 RETURNDATACOPY RETURNDATASIZE PUSH1 0x0 REVERT JUMPDEST POP JUMP JUMPDEST DUP1 PUSH1 0x0 DUP1 DUP3 DUP2 MSTORE PUSH1 0x20 ADD SWAP1 DUP2 MSTORE PUSH1 0x20 ADD PUSH1 0x0 KECCAK256 PUSH1 0x4 ADD SLOAD TIMESTAMP LT PUSH2 0x465 JUMPI PUSH1 0x40 MLOAD PUSH32 0x8C379A000000000000000000000000000000000000000000000000000000000 DUP2 MSTORE PUSH1 0x4 ADD PUSH2 0x45C SWAP1 PUSH2 0xE07 JUMP JUMPDEST PUSH1 0x40 MLOAD DUP1 SWAP2 SUB SWAP1 REVERT JUMPDEST PUSH1 0x0 DUP1 PUSH1 0x0 DUP5 DUP2 MSTORE PUSH1 0x20 ADD SWAP1 DUP2 MSTORE PUSH1 0x20 ADD PUSH1 0x0 KECCAK256 SWAP1 POP PUSH1 0x0 CALLVALUE GT PUSH2 0x4BE JUMPI PUSH1 0x40 MLOAD PUSH32 0x8C379A000000000000000000000000000000000000000000000000000000000 DUP2 MSTORE PUSH1 0x4 ADD PUSH2 0x4B5 SWAP1 PUSH2 0xE99 JUMP JUMPDEST PUSH1 0x40 MLOAD DUP1 SWAP2 SUB SWAP1 REVERT JUMPDEST CALLVALUE DUP2 PUSH1 0x5 ADD PUSH1 0x0 DUP3 DUP3 SLOAD PUSH2 0x4D2 SWAP2 SWAP1 PUSH2 0xEE8 JUMP JUMPDEST SWAP3 POP POP DUP2 SWAP1 SSTORE POP PUSH32 0xB5B4C52969FF7329ECF7EE536409FDA87812B15A8622BC6E8CDEAB3AEE14A26 DUP4 CALLER CALLVALUE PUSH1 0x40 MLOAD PUSH2 0x50C SWAP4 SWAP3 SWAP2 SWAP1 PUSH2 0xF1C JUMP JUMPDEST PUSH1 0x40 MLOAD DUP1 SWAP2 SUB SWAP1 LOG1 POP POP POP JUMP JUMPDEST PUSH1 0x1 SLOAD DUP2 JUMP JUMPDEST PUSH1 0x2 PUSH1 0x0 SWAP1 SLOAD SWAP1 PUSH2 0x100 EXP SWAP1 DIV PUSH20 0xFFFFFFFFFFFFFFFFFFFFFFFFFFFFFFFFFFFFFFFF AND DUP2 JUMP JUMPDEST PUSH1 0x0 DUP3 GT PUSH2 0x588 JUMPI PUSH1 0x40 MLOAD PUSH32 0x8C379A000000000000000000000000000000000000000000000000000000000 DUP2 MSTORE PUSH1 0x4 ADD PUSH2 0x57F SWAP1 PUSH2 0xF9F JUMP JUMPDEST PUSH1 0x40 MLOAD DUP1 SWAP2 SUB SWAP1 REVERT JUMPDEST PUSH1 0x1 PUSH1 0x0 DUP2 SLOAD DUP1 SWAP3 SWAP2 SWAP1 PUSH2 0x59B SWAP1 PUSH2 0xFBF JUMP JUMPDEST SWAP2 SWAP1 POP SSTORE POP PUSH1 0x0 DUP2 TIMESTAMP PUSH2 0x5AE SWAP2 SWAP1 PUSH2 0xEE8 JUMP JUMPDEST SWAP1 POP PUSH1 0x40 MLOAD DUP1 PUSH1 0xE0 ADD PUSH1 0x40 MSTORE DUP1 DUP8 DUP2 MSTORE PUSH1 0x20 ADD DUP7 DUP2 MSTORE PUSH1 0x20 ADD DUP6 PUSH20 0xFFFFFFFFFFFFFFFFFFFFFFFFFFFFFFFFFFFFFFFF AND DUP2 MSTORE PUSH1 0x20 ADD DUP5 DUP2 MSTORE PUSH1 0x20 ADD DUP3 DUP2 MSTORE PUSH1 0x20 ADD PUSH1 0x0 DUP2 MSTORE PUSH1 0x20 ADD PUSH1 0x0 ISZERO ISZERO DUP2 MSTORE POP PUSH1 0x0 DUP1 PUSH1 0x1 SLOAD DUP2 MSTORE PUSH1 0x20 ADD SWAP1 DUP2 MSTORE PUSH1 0x20 ADD PUSH1 0x0 KECCAK256 PUSH1 0x0 DUP3 ADD MLOAD DUP2 PUSH1 0x0 ADD SWAP1 DUP2 PUSH2 0x626 SWAP2 SWAP1 PUSH2 0x11B3 JUMP JUMPDEST POP PUSH1 0x20 DUP3 ADD MLOAD DUP2 PUSH1 0x1 ADD SWAP1 DUP2 PUSH2 0x63C SWAP2 SWAP1 PUSH2 0x11B3 JUMP JUMPDEST POP PUSH1 0x40 DUP3 ADD MLOAD DUP2 PUSH1 0x2 ADD PUSH1 0x0 PUSH2 0x100 EXP DUP2 SLOAD DUP2 PUSH20 0xFFFFFFFFFFFFFFFFFFFFFFFFFFFFFFFFFFFFFFFF MUL NOT AND SWAP1 DUP4 PUSH20 0xFFFFFFFFFFFFFFFFFFFFFFFFFFFFFFFFFFFFFFFF AND MUL OR SWAP1 SSTORE POP PUSH1 0x60 DUP3 ADD MLOAD DUP2 PUSH1 0x3 ADD SSTORE PUSH1 0x80 DUP3 ADD MLOAD DUP2 PUSH1 0x4 ADD SSTORE PUSH1 0xA0 DUP3 ADD MLOAD DUP2 PUSH1 0x5 ADD SSTORE PUSH1 0xC0 DUP3 ADD MLOAD DUP2 PUSH1 0x6 ADD PUSH1 0x0 PUSH2 0x100 EXP DUP2 SLOAD DUP2 PUSH1 0xFF MUL NOT AND SWAP1 DUP4 ISZERO ISZERO MUL OR SWAP1 SSTORE POP SWAP1 POP POP PUSH32 0x2FE3FDDD43AAD14AE5C30D5D694F19ECB065DFDE85BB591B91E8AF1448724D2 PUSH1 0x1 SLOAD DUP8 DUP6 DUP5 PUSH1 0x40 MLOAD PUSH2 0x6FC SWAP5 SWAP4 SWAP3 SWAP2 SWAP1 PUSH2 0x1285 JUMP JUMPDEST PUSH1 0x40 MLOAD DUP1 SWAP2 SUB SWAP1 LOG1 POP POP POP POP POP POP JUMP JUMPDEST PUSH1 0x0 DUP1 PUSH1 0x0 DUP4 DUP2 MSTORE PUSH1 0x20 ADD SWAP1 DUP2 MSTORE PUSH1 0x20 ADD PUSH1 0x0 KECCAK256 SWAP1 POP DUP1 PUSH1 0x4 ADD SLOAD TIMESTAMP LT ISZERO PUSH2 0x769 JUMPI PUSH1 0x40 MLOAD PUSH32 0x8C379A000000000000000000000000000000000000000000000000000000000 DUP2 MSTORE PUSH1 0x4 ADD PUSH2 0x760 SWAP1 PUSH2 0x1343 JUMP JUMPDEST PUSH1 0x40 MLOAD DUP1 SWAP2 SUB SWAP1 REVERT JUMPDEST DUP1 PUSH1 0x6 ADD PUSH1 0x0 SWAP1 SLOAD SWAP1 PUSH2 0x100 EXP SWAP1 DIV PUSH1 0xFF AND ISZERO PUSH2 0x7BB JUMPI PUSH1 0x40 MLOAD PUSH32 0x8C379A000000000000000000000000000000000000000000000000000000000 DUP2 MSTORE PUSH1 0x4 ADD PUSH2 0x7B2 SWAP1 PUSH2 0x13AF JUMP JUMPDEST PUSH1 0x40 MLOAD DUP1 SWAP2 SUB SWAP1 REVERT JUMPDEST PUSH1 0x1 DUP2 PUSH1 0x6 ADD PUSH1 0x0 PUSH2 0x100 EXP DUP2 SLOAD DUP2 PUSH1 0xFF MUL NOT AND SWAP1 DUP4 ISZERO ISZERO MUL OR SWAP1 SSTORE POP DUP1 PUSH1 0x2 ADD PUSH1 0x0 SWAP1 SLOAD SWAP1 PUSH2 0x100 EXP SWAP1 DIV PUSH20 0xFFFFFFFFFFFFFFFFFFFFFFFFFFFFFFFFFFFFFFFF AND PUSH20 0xFFFFFFFFFFFFFFFFFFFFFFFFFFFFFFFFFFFFFFFF AND PUSH2 0x8FC DUP3 PUSH1 0x5 ADD SLOAD SWAP1 DUP2 ISZERO MUL SWAP1 PUSH1 0x40 MLOAD PUSH1 0x0 PUSH1 0x40 MLOAD DUP1 DUP4 SUB DUP2 DUP6 DUP9 DUP9 CALL SWAP4 POP POP POP POP ISZERO DUP1 ISZERO PUSH2 0x846 JUMPI RETURNDATASIZE PUSH1 0x0 DUP1 RETURNDATACOPY RETURNDATASIZE PUSH1 0x0 REVERT JUMPDEST POP PUSH32 0x2DAEB9036523684D0097530A448D8D042FF2DA258E6F6B7F30184FA0FD7BCF0A DUP3 DUP3 PUSH1 0x5 ADD SLOAD DUP4 PUSH1 0x3 ADD SLOAD DUP5 PUSH1 0x5 ADD SLOAD LT ISZERO PUSH1 0x40 MLOAD PUSH2 0x889 SWAP4 SWAP3 SWAP2 SWAP1 PUSH2 0x13CF JUMP JUMPDEST PUSH1 0x40 MLOAD DUP1 SWAP2 SUB SWAP1 LOG1 POP POP JUMP JUMPDEST PUSH1 0x0 PUSH1 0x40 MLOAD SWAP1 POP SWAP1 JUMP JUMPDEST PUSH1 0x0 DUP1 REVERT JUMPDEST PUSH1 0x0 DUP1 REVERT JUMPDEST PUSH1 0x0 DUP2 SWAP1 POP SWAP2 SWAP1 POP JUMP JUMPDEST PUSH2 0x8BC DUP2 PUSH2 0x8A9 JUMP JUMPDEST DUP2 EQ PUSH2 0x8C7 JUMPI PUSH1 0x0 DUP1 REVERT JUMPDEST POP JUMP JUMPDEST PUSH1 0x0 DUP2 CALLDATALOAD SWAP1 POP PUSH2 0x8D9 DUP2 PUSH2 0x8B3 JUMP JUMPDEST SWAP3 SWAP2 POP POP JUMP JUMPDEST PUSH1 0x0 PUSH1 0x20 DUP3 DUP5 SUB SLT ISZERO PUSH2 0x8F5 JUMPI PUSH2 0x8F4 PUSH2 0x89F JUMP JUMPDEST JUMPDEST PUSH1 0x0 PUSH2 0x903 DUP5 DUP3 DUP6 ADD PUSH2 0x8CA JUMP JUMPDEST SWAP2 POP POP SWAP3 SWAP2 POP POP JUMP JUMPDEST PUSH1 0x0 DUP2 MLOAD SWAP1 POP SWAP2 SWAP1 POP JUMP JUMPDEST PUSH1 0x0 DUP3 DUP3 MSTORE PUSH1 0x20 DUP3 ADD SWAP1 POP SWAP3 SWAP2 POP POP JUMP JUMPDEST PUSH1 0x0 JUMPDEST DUP4 DUP2 LT ISZERO PUSH2 0x946 JUMPI DUP1 DUP3 ADD MLOAD DUP2 DUP5 ADD MSTORE PUSH1 0x20 DUP2 ADD SWAP1 POP PUSH2 0x92B JUMP JUMPDEST PUSH1 0x0 DUP5 DUP5 ADD MSTORE POP POP POP POP JUMP JUMPDEST PUSH1 0x0 PUSH1 0x1F NOT PUSH1 0x1F DUP4 ADD AND SWAP1 POP SWAP2 SWAP1 POP JUMP JUMPDEST PUSH1 0x0 PUSH2 0x96E DUP3 PUSH2 0x90C JUMP JUMPDEST PUSH2 0x978 DUP2 DUP6 PUSH2 0x917 JUMP JUMPDEST SWAP4 POP PUSH2 0x988 DUP2 DUP6 PUSH1 0x20 DUP7 ADD PUSH2 0x928 JUMP JUMPDEST PUSH2 0x991 DUP2 PUSH2 0x952 JUMP JUMPDEST DUP5 ADD SWAP2 POP POP SWAP3 SWAP2 POP POP JUMP JUMPDEST PUSH1 0x0 PUSH20 0xFFFFFFFFFFFFFFFFFFFFFFFFFFFFFFFFFFFFFFFF DUP3 AND SWAP1 POP SWAP2 SWAP1 POP JUMP JUMPDEST PUSH1 0x0 PUSH2 0x9C7 DUP3 PUSH2 0x99C JUMP JUMPDEST SWAP1 POP SWAP2 SWAP1 POP JUMP JUMPDEST PUSH2 0x9D7 DUP2 PUSH2 0x9BC JUMP JUMPDEST DUP3 MSTORE POP POP JUMP JUMPDEST PUSH2 0x9E6 DUP2 PUSH2 0x8A9 JUMP JUMPDEST DUP3 MSTORE POP POP JUMP JUMPDEST PUSH1 0x0 DUP2 ISZERO ISZERO SWAP1 POP SWAP2 SWAP1 POP JUMP JUMPDEST PUSH2 0xA01 DUP2 PUSH2 0x9EC JUMP JUMPDEST DUP3 MSTORE POP POP JUMP JUMPDEST PUSH1 0x0 PUSH1 0xE0 DUP3 ADD SWAP1 POP DUP2 DUP2 SUB PUSH1 0x0 DUP4 ADD MSTORE PUSH2 0xA21 DUP2 DUP11 PUSH2 0x963 JUMP JUMPDEST SWAP1 POP DUP2 DUP2 SUB PUSH1 0x20 DUP4 ADD MSTORE PUSH2 0xA35 DUP2 DUP10 PUSH2 0x963 JUMP JUMPDEST SWAP1 POP PUSH2 0xA44 PUSH1 0x40 DUP4 ADD DUP9 PUSH2 0x9CE JUMP JUMPDEST PUSH2 0xA51 PUSH1 0x60 DUP4 ADD DUP8 PUSH2 0x9DD JUMP JUMPDEST PUSH2 0xA5E PUSH1 0x80 DUP4 ADD DUP7 PUSH2 0x9DD JUMP JUMPDEST PUSH2 0xA6B PUSH1 0xA0 DUP4 ADD DUP6 PUSH2 0x9DD JUMP JUMPDEST PUSH2 0xA78 PUSH1 0xC0 DUP4 ADD DUP5 PUSH2 0x9F8 JUMP JUMPDEST SWAP9 SWAP8 POP POP POP POP POP POP POP POP JUMP JUMPDEST PUSH1 0x0 PUSH1 0x20 DUP3 ADD SWAP1 POP PUSH2 0xA99 PUSH1 0x0 DUP4 ADD DUP5 PUSH2 0x9DD JUMP JUMPDEST SWAP3 SWAP2 POP POP JUMP JUMPDEST PUSH1 0x0 PUSH2 0xAAA DUP3 PUSH2 0x99C JUMP JUMPDEST SWAP1 POP SWAP2 SWAP1 POP JUMP JUMPDEST PUSH2 0xABA DUP2 PUSH2 0xA9F JUMP JUMPDEST DUP3 MSTORE POP POP JUMP JUMPDEST PUSH1 0x0 PUSH1 0x20 DUP3 ADD SWAP1 POP PUSH2 0xAD5 PUSH1 0x0 DUP4 ADD DUP5 PUSH2 0xAB1 JUMP JUMPDEST SWAP3 SWAP2 POP POP JUMP JUMPDEST PUSH1 0x0 DUP1 REVERT JUMPDEST PUSH1 0x0 DUP1 REVERT JUMPDEST PUSH32 0x4E487B7100000000000000000000000000000000000000000000000000000000 PUSH1 0x0 MSTORE PUSH1 0x41 PUSH1 0x4 MSTORE PUSH1 0x24 PUSH1 0x0 REVERT JUMPDEST PUSH2 0xB1D DUP3 PUSH2 0x952 JUMP JUMPDEST DUP2 ADD DUP2 DUP2 LT PUSH8 0xFFFFFFFFFFFFFFFF DUP3 GT OR ISZERO PUSH2 0xB3C JUMPI PUSH2 0xB3B PUSH2 0xAE5 JUMP JUMPDEST JUMPDEST DUP1 PUSH1 0x40 MSTORE POP POP POP JUMP JUMPDEST PUSH1 0x0 PUSH2 0xB4F PUSH2 0x895 JUMP JUMPDEST SWAP1 POP PUSH2 0xB5B DUP3 DUP3 PUSH2 0xB14 JUMP JUMPDEST SWAP2 SWAP1 POP JUMP JUMPDEST PUSH1 0x0 PUSH8 0xFFFFFFFFFFFFFFFF DUP3 GT ISZERO PUSH2 0xB7B JUMPI PUSH2 0xB7A PUSH2 0xAE5 JUMP JUMPDEST JUMPDEST PUSH2 0xB84 DUP3 PUSH2 0x952 JUMP JUMPDEST SWAP1 POP PUSH1 0x20 DUP2 ADD SWAP1 POP SWAP2 SWAP1 POP JUMP JUMPDEST DUP3 DUP2 DUP4 CALLDATACOPY PUSH1 0x0 DUP4 DUP4 ADD MSTORE POP POP POP JUMP JUMPDEST PUSH1 0x0 PUSH2 0xBB3 PUSH2 0xBAE DUP5 PUSH2 0xB60 JUMP JUMPDEST PUSH2 0xB45 JUMP JUMPDEST SWAP1 POP DUP3 DUP2 MSTORE PUSH1 0x20 DUP2 ADD DUP5 DUP5 DUP5 ADD GT ISZERO PUSH2 0xBCF JUMPI PUSH2 0xBCE PUSH2 0xAE0 JUMP JUMPDEST JUMPDEST PUSH2 0xBDA DUP5 DUP3 DUP6 PUSH2 0xB91 JUMP JUMPDEST POP SWAP4 SWAP3 POP POP POP JUMP JUMPDEST PUSH1 0x0 DUP3 PUSH1 0x1F DUP4 ADD SLT PUSH2 0xBF7 JUMPI PUSH2 0xBF6 PUSH2 0xADB JUMP JUMPDEST JUMPDEST DUP2 CALLDATALOAD PUSH2 0xC07 DUP5 DUP3 PUSH1 0x20 DUP7 ADD PUSH2 0xBA0 JUMP JUMPDEST SWAP2 POP POP SWAP3 SWAP2 POP POP JUMP JUMPDEST PUSH2 0xC19 DUP2 PUSH2 0x9BC JUMP JUMPDEST DUP2 EQ PUSH2 0xC24 JUMPI PUSH1 0x0 DUP1 REVERT JUMPDEST POP JUMP JUMPDEST PUSH1 0x0 DUP2 CALLDATALOAD SWAP1 POP PUSH2 0xC36 DUP2 PUSH2 0xC10 JUMP JUMPDEST SWAP3 SWAP2 POP POP JUMP JUMPDEST PUSH1 0x0 DUP1 PUSH1 0x0 DUP1 PUSH1 0x0 PUSH1 0xA0 DUP7 DUP9 SUB SLT ISZERO PUSH2 0xC58 JUMPI PUSH2 0xC57 PUSH2 0x89F JUMP JUMPDEST JUMPDEST PUSH1 0x0 DUP7 ADD CALLDATALOAD PUSH8 0xFFFFFFFFFFFFFFFF DUP2 GT ISZERO PUSH2 0xC76 JUMPI PUSH2 0xC75 PUSH2 0x8A4 JUMP JUMPDEST JUMPDEST PUSH2 0xC82 DUP9 DUP3 DUP10 ADD PUSH2 0xBE2 JUMP JUMPDEST SWAP6 POP POP PUSH1 0x20 DUP7 ADD CALLDATALOAD PUSH8 0xFFFFFFFFFFFFFFFF DUP2 GT ISZERO PUSH2 0xCA3 JUMPI PUSH2 0xCA2 PUSH2 0x8A4 JUMP JUMPDEST JUMPDEST PUSH2 0xCAF DUP9 DUP3 DUP10 ADD PUSH2 0xBE2 JUMP JUMPDEST SWAP5 POP POP PUSH1 0x40 PUSH2 0xCC0 DUP9 DUP3 DUP10 ADD PUSH2 0xC27 JUMP JUMPDEST SWAP4 POP POP PUSH1 0x60 PUSH2 0xCD1 DUP9 DUP3 DUP10 ADD PUSH2 0x8CA JUMP JUMPDEST SWAP3 POP POP PUSH1 0x80 PUSH2 0xCE2 DUP9 DUP3 DUP10 ADD PUSH2 0x8CA JUMP JUMPDEST SWAP2 POP POP SWAP3 SWAP6 POP SWAP3 SWAP6 SWAP1 SWAP4 POP JUMP JUMPDEST PUSH32 0x4E487B7100000000000000000000000000000000000000000000000000000000 PUSH1 0x0 MSTORE PUSH1 0x22 PUSH1 0x4 MSTORE PUSH1 0x24 PUSH1 0x0 REVERT JUMPDEST PUSH1 0x0 PUSH1 0x2 DUP3 DIV SWAP1 POP PUSH1 0x1 DUP3 AND DUP1 PUSH2 0xD36 JUMPI PUSH1 0x7F DUP3 AND SWAP2 POP JUMPDEST PUSH1 0x20 DUP3 LT DUP2 SUB PUSH2 0xD49 JUMPI PUSH2 0xD48 PUSH2 0xCEF JUMP JUMPDEST JUMPDEST POP SWAP2 SWAP1 POP JUMP JUMPDEST PUSH32 0x4E6F742074686520636F6E7472616374206F776E657200000000000000000000 PUSH1 0x0 DUP3 ADD MSTORE POP JUMP JUMPDEST PUSH1 0x0 PUSH2 0xD85 PUSH1 0x16 DUP4 PUSH2 0x917 JUMP JUMPDEST SWAP2 POP PUSH2 0xD90 DUP3 PUSH2 0xD4F JUMP JUMPDEST PUSH1 0x20 DUP3 ADD SWAP1 POP SWAP2 SWAP1 POP JUMP JUMPDEST PUSH1 0x0 PUSH1 0x20 DUP3 ADD SWAP1 POP DUP2 DUP2 SUB PUSH1 0x0 DUP4 ADD MSTORE PUSH2 0xDB4 DUP2 PUSH2 0xD78 JUMP JUMPDEST SWAP1 POP SWAP2 SWAP1 POP JUMP JUMPDEST PUSH32 0x43616D706169676E2068617320656E6465640000000000000000000000000000 PUSH1 0x0 DUP3 ADD MSTORE POP JUMP JUMPDEST PUSH1 0x0 PUSH2 0xDF1 PUSH1 0x12 DUP4 PUSH2 0x917 JUMP JUMPDEST SWAP2 POP PUSH2 0xDFC DUP3 PUSH2 0xDBB JUMP JUMPDEST PUSH1 0x20 DUP3 ADD SWAP1 POP SWAP2 SWAP1 POP JUMP JUMPDEST PUSH1 0x0 PUSH1 0x20 DUP3 ADD SWAP1 POP DUP2 DUP2 SUB PUSH1 0x0 DUP4 ADD MSTORE PUSH2 0xE20 DUP2 PUSH2 0xDE4 JUMP JUMPDEST SWAP1 POP SWAP2 SWAP1 POP JUMP JUMPDEST PUSH32 0x446F6E6174696F6E20616D6F756E742073686F756C6420626520677265617465 PUSH1 0x0 DUP3 ADD MSTORE PUSH32 0x72207468616E207A65726F000000000000000000000000000000000000000000 PUSH1 0x20 DUP3 ADD MSTORE POP JUMP JUMPDEST PUSH1 0x0 PUSH2 0xE83 PUSH1 0x2B DUP4 PUSH2 0x917 JUMP JUMPDEST SWAP2 POP PUSH2 0xE8E DUP3 PUSH2 0xE27 JUMP JUMPDEST PUSH1 0x40 DUP3 ADD SWAP1 POP SWAP2 SWAP1 POP JUMP JUMPDEST PUSH1 0x0 PUSH1 0x20 DUP3 ADD SWAP1 POP DUP2 DUP2 SUB PUSH1 0x0 DUP4 ADD MSTORE PUSH2 0xEB2 DUP2 PUSH2 0xE76 JUMP JUMPDEST SWAP1 POP SWAP2 SWAP1 POP JUMP JUMPDEST PUSH32 0x4E487B7100000000000000000000000000000000000000000000000000000000 PUSH1 0x0 MSTORE PUSH1 0x11 PUSH1 0x4 MSTORE PUSH1 0x24 PUSH1 0x0 REVERT JUMPDEST PUSH1 0x0 PUSH2 0xEF3 DUP3 PUSH2 0x8A9 JUMP JUMPDEST SWAP2 POP PUSH2 0xEFE DUP4 PUSH2 0x8A9 JUMP JUMPDEST SWAP3 POP DUP3 DUP3 ADD SWAP1 POP DUP1 DUP3 GT ISZERO PUSH2 0xF16 JUMPI PUSH2 0xF15 PUSH2 0xEB9 JUMP JUMPDEST JUMPDEST SWAP3 SWAP2 POP POP JUMP JUMPDEST PUSH1 0x0 PUSH1 0x60 DUP3 ADD SWAP1 POP PUSH2 0xF31 PUSH1 0x0 DUP4 ADD DUP7 PUSH2 0x9DD JUMP JUMPDEST PUSH2 0xF3E PUSH1 0x20 DUP4 ADD DUP6 PUSH2 0xAB1 JUMP JUMPDEST PUSH2 0xF4B PUSH1 0x40 DUP4 ADD DUP5 PUSH2 0x9DD JUMP JUMPDEST SWAP5 SWAP4 POP POP POP POP JUMP JUMPDEST PUSH32 0x476F616C2073686F756C642062652067726561746572207468616E207A65726F PUSH1 0x0 DUP3 ADD MSTORE POP JUMP JUMPDEST PUSH1 0x0 PUSH2 0xF89 PUSH1 0x20 DUP4 PUSH2 0x917 JUMP JUMPDEST SWAP2 POP PUSH2 0xF94 DUP3 PUSH2 0xF53 JUMP JUMPDEST PUSH1 0x20 DUP3 ADD SWAP1 POP SWAP2 SWAP1 POP JUMP JUMPDEST PUSH1 0x0 PUSH1 0x20 DUP3 ADD SWAP1 POP DUP2 DUP2 SUB PUSH1 0x0 DUP4 ADD MSTORE PUSH2 0xFB8 DUP2 PUSH2 0xF7C JUMP JUMPDEST SWAP1 POP SWAP2 SWAP1 POP JUMP JUMPDEST PUSH1 0x0 PUSH2 0xFCA DUP3 PUSH2 0x8A9 JUMP JUMPDEST SWAP2 POP PUSH32 0xFFFFFFFFFFFFFFFFFFFFFFFFFFFFFFFFFFFFFFFFFFFFFFFFFFFFFFFFFFFFFFFF DUP3 SUB PUSH2 0xFFC JUMPI PUSH2 0xFFB PUSH2 0xEB9 JUMP JUMPDEST JUMPDEST PUSH1 0x1 DUP3 ADD SWAP1 POP SWAP2 SWAP1 POP JUMP JUMPDEST PUSH1 0x0 DUP2 SWAP1 POP DUP2 PUSH1 0x0 MSTORE PUSH1 0x20 PUSH1 0x0 KECCAK256 SWAP1 POP SWAP2 SWAP1 POP JUMP JUMPDEST PUSH1 0x0 PUSH1 0x20 PUSH1 0x1F DUP4 ADD DIV SWAP1 POP SWAP2 SWAP1 POP JUMP JUMPDEST PUSH1 0x0 DUP3 DUP3 SHL SWAP1 POP SWAP3 SWAP2 POP POP JUMP JUMPDEST PUSH1 0x0 PUSH1 0x8 DUP4 MUL PUSH2 0x1069 PUSH32 0xFFFFFFFFFFFFFFFFFFFFFFFFFFFFFFFFFFFFFFFFFFFFFFFFFFFFFFFFFFFFFFFF DUP3 PUSH2 0x102C JUMP JUMPDEST PUSH2 0x1073 DUP7 DUP4 PUSH2 0x102C JUMP JUMPDEST SWAP6 POP DUP1 NOT DUP5 AND SWAP4 POP DUP1 DUP7 AND DUP5 OR SWAP3 POP POP POP SWAP4 SWAP3 POP POP POP JUMP JUMPDEST PUSH1 0x0 DUP2 SWAP1 POP SWAP2 SWAP1 POP JUMP JUMPDEST PUSH1 0x0 PUSH2 0x10B0 PUSH2 0x10AB PUSH2 0x10A6 DUP5 PUSH2 0x8A9 JUMP JUMPDEST PUSH2 0x108B JUMP JUMPDEST PUSH2 0x8A9 JUMP JUMPDEST SWAP1 POP SWAP2 SWAP1 POP JUMP JUMPDEST PUSH1 0x0 DUP2 SWAP1 POP SWAP2 SWAP1 POP JUMP JUMPDEST PUSH2 0x10CA DUP4 PUSH2 0x1095 JUMP JUMPDEST PUSH2 0x10DE PUSH2 0x10D6 DUP3 PUSH2 0x10B7 JUMP JUMPDEST DUP5 DUP5 SLOAD PUSH2 0x1039 JUMP JUMPDEST DUP3 SSTORE POP POP POP POP JUMP JUMPDEST PUSH1 0x0 SWAP1 JUMP JUMPDEST PUSH2 0x10F3 PUSH2 0x10E6 JUMP JUMPDEST PUSH2 0x10FE DUP2 DUP5 DUP5 PUSH2 0x10C1 JUMP JUMPDEST POP POP POP JUMP JUMPDEST JUMPDEST DUP2 DUP2 LT ISZERO PUSH2 0x1122 JUMPI PUSH2 0x1117 PUSH1 0x0 DUP3 PUSH2 0x10EB JUMP JUMPDEST PUSH1 0x1 DUP2 ADD SWAP1 POP PUSH2 0x1104 JUMP JUMPDEST POP POP JUMP JUMPDEST PUSH1 0x1F DUP3 GT ISZERO PUSH2 0x1167 JUMPI PUSH2 0x1138 DUP2 PUSH2 0x1007 JUMP JUMPDEST PUSH2 0x1141 DUP5 PUSH2 0x101C JUMP JUMPDEST DUP2 ADD PUSH1 0x20 DUP6 LT ISZERO PUSH2 0x1150 JUMPI DUP2 SWAP1 POP JUMPDEST PUSH2 0x1164 PUSH2 0x115C DUP6 PUSH2 0x101C JUMP JUMPDEST DUP4 ADD DUP3 PUSH2 0x1103 JUMP JUMPDEST POP POP JUMPDEST POP POP POP JUMP JUMPDEST PUSH1 0x0 DUP3 DUP3 SHR SWAP1 POP SWAP3 SWAP2 POP POP JUMP JUMPDEST PUSH1 0x0 PUSH2 0x118A PUSH1 0x0 NOT DUP5 PUSH1 0x8 MUL PUSH2 0x116C JUMP JUMPDEST NOT DUP1 DUP4 AND SWAP2 POP POP SWAP3 SWAP2 POP POP JUMP JUMPDEST PUSH1 0x0 PUSH2 0x11A3 DUP4 DUP4 PUSH2 0x1179 JUMP JUMPDEST SWAP2 POP DUP3 PUSH1 0x2 MUL DUP3 OR SWAP1 POP SWAP3 SWAP2 POP POP JUMP JUMPDEST PUSH2 0x11BC DUP3 PUSH2 0x90C JUMP JUMPDEST PUSH8 0xFFFFFFFFFFFFFFFF DUP2 GT ISZERO PUSH2 0x11D5 JUMPI PUSH2 0x11D4 PUSH2 0xAE5 JUMP JUMPDEST JUMPDEST PUSH2 0x11DF DUP3 SLOAD PUSH2 0xD1E JUMP JUMPDEST PUSH2 0x11EA DUP3 DUP3 DUP6 PUSH2 0x1126 JUMP JUMPDEST PUSH1 0x0 PUSH1 0x20 SWAP1 POP PUSH1 0x1F DUP4 GT PUSH1 0x1 DUP2 EQ PUSH2 0x121D JUMPI PUSH1 0x0 DUP5 ISZERO PUSH2 0x120B JUMPI DUP3 DUP8 ADD MLOAD SWAP1 POP JUMPDEST PUSH2 0x1215 DUP6 DUP3 PUSH2 0x1197 JUMP JUMPDEST DUP7 SSTORE POP PUSH2 0x127D JUMP JUMPDEST PUSH1 0x1F NOT DUP5 AND PUSH2 0x122B DUP7 PUSH2 0x1007 JUMP JUMPDEST PUSH1 0x0 JUMPDEST DUP3 DUP2 LT ISZERO PUSH2 0x1253 JUMPI DUP5 DUP10 ADD MLOAD DUP3 SSTORE PUSH1 0x1 DUP3 ADD SWAP2 POP PUSH1 0x20 DUP6 ADD SWAP5 POP PUSH1 0x20 DUP2 ADD SWAP1 POP PUSH2 0x122E JUMP JUMPDEST DUP7 DUP4 LT ISZERO PUSH2 0x1270 JUMPI DUP5 DUP10 ADD MLOAD PUSH2 0x126C PUSH1 0x1F DUP10 AND DUP3 PUSH2 0x1179 JUMP JUMPDEST DUP4 SSTORE POP JUMPDEST PUSH1 0x1 PUSH1 0x2 DUP9 MUL ADD DUP9 SSTORE POP POP POP JUMPDEST POP POP POP POP POP POP JUMP JUMPDEST PUSH1 0x0 PUSH1 0x80 DUP3 ADD SWAP1 POP PUSH2 0x129A PUSH1 0x0 DUP4 ADD DUP8 PUSH2 0x9DD JUMP JUMPDEST DUP2 DUP2 SUB PUSH1 0x20 DUP4 ADD MSTORE PUSH2 0x12AC DUP2 DUP7 PUSH2 0x963 JUMP JUMPDEST SWAP1 POP PUSH2 0x12BB PUSH1 0x40 DUP4 ADD DUP6 PUSH2 0x9DD JUMP JUMPDEST PUSH2 0x12C8 PUSH1 0x60 DUP4 ADD DUP5 PUSH2 0x9DD JUMP JUMPDEST SWAP6 SWAP5 POP POP POP POP POP JUMP JUMPDEST PUSH32 0x43616D706169676E20646561646C696E6520686173206E6F7420796574207061 PUSH1 0x0 DUP3 ADD MSTORE PUSH32 0x7373656400000000000000000000000000000000000000000000000000000000 PUSH1 0x20 DUP3 ADD MSTORE POP JUMP JUMPDEST PUSH1 0x0 PUSH2 0x132D PUSH1 0x24 DUP4 PUSH2 0x917 JUMP JUMPDEST SWAP2 POP PUSH2 0x1338 DUP3 PUSH2 0x12D1 JUMP JUMPDEST PUSH1 0x40 DUP3 ADD SWAP1 POP SWAP2 SWAP1 POP JUMP JUMPDEST PUSH1 0x0 PUSH1 0x20 DUP3 ADD SWAP1 POP DUP2 DUP2 SUB PUSH1 0x0 DUP4 ADD MSTORE PUSH2 0x135C DUP2 PUSH2 0x1320 JUMP JUMPDEST SWAP1 POP SWAP2 SWAP1 POP JUMP JUMPDEST PUSH32 0x43616D706169676E2068617320616C726561647920656E646564000000000000 PUSH1 0x0 DUP3 ADD MSTORE POP JUMP JUMPDEST PUSH1 0x0 PUSH2 0x1399 PUSH1 0x1A DUP4 PUSH2 0x917 JUMP JUMPDEST SWAP2 POP PUSH2 0x13A4 DUP3 PUSH2 0x1363 JUMP JUMPDEST PUSH1 0x20 DUP3 ADD SWAP1 POP SWAP2 SWAP1 POP JUMP JUMPDEST PUSH1 0x0 PUSH1 0x20 DUP3 ADD SWAP1 POP DUP2 DUP2 SUB PUSH1 0x0 DUP4 ADD MSTORE PUSH2 0x13C8 DUP2 PUSH2 0x138C JUMP JUMPDEST SWAP1 POP SWAP2 SWAP1 POP JUMP JUMPDEST PUSH1 0x0 PUSH1 0x60 DUP3 ADD SWAP1 POP PUSH2 0x13E4 PUSH1 0x0 DUP4 ADD DUP7 PUSH2 0x9DD JUMP JUMPDEST PUSH2 0x13F1 PUSH1 0x20 DUP4 ADD DUP6 PUSH2 0x9DD JUMP JUMPDEST PUSH2 0x13FE PUSH1 0x40 DUP4 ADD DUP5 PUSH2 0x9F8 JUMP JUMPDEST SWAP5 SWAP4 POP POP POP POP JUMP INVALID LOG2 PUSH5 0x6970667358 0x22 SLT KECCAK256 0xD1 SELFBALANCE 0xC4 0xD8 0xDA PUSH1 0x52 DUP2 ADDMOD MSIZE 0xCF STATICCALL PUSH0 KECCAK256 0xAA 0x23 LOG4 GAS SGT PUSH9 0x798C872453F61D3654 PUSH20 0xE1E864736F6C6343000818003300000000000000 "
        },
        "methodIdentifiers": {
          "campaignCount()": "7274e30d",
          "campaigns(uint256)": "141961bc",
          "createCampaign(string,string,address,uint256,uint256)": "9304d124",
          "donateToCampaign(uint256)": "42a4fda8",
          "endCampaign(uint256)": "dd0408ae",
          "owner()": "8da5cb5b",
          "withdraw()": "3ccfd60b"
        }
      }
    }
  }
}