{
  "_format": "hh-sol-artifact-1",
  "contractName": "CrowdFunding",
  "sourceName": "contracts/CrowdFunding.sol",
  "abi": [
    {
      "inputs": [],
      "stateMutability": "nonpayable",
      "type": "constructor"
    },
    {
      "anonymous": false,
      "inputs": [
        {
          "indexed": false,
          "internalType": "uint256",
          "name": "campaignId",
          "type": "uint256"
        },
        {
          "indexed": false,
          "internalType": "string",
          "name": "title",
          "type": "string"
        },
        {
          "indexed": false,
          "internalType": "uint256",
          "name": "goal",
          "type": "uint256"
        },
        {
          "indexed": false,
          "internalType": "uint256",
          "name": "deadline",
          "type": "uint256"
        }
      ],
      "name": "CampaignCreated",
      "type": "event"
    },
    {
      "anonymous": false,
      "inputs": [
        {
          "indexed": false,
          "internalType": "uint256",
          "name": "campaignId",
          "type": "uint256"
        },
        {
          "indexed": false,
          "internalType": "uint256",
          "name": "amountRaised",
          "type": "uint256"
        },
        {
          "indexed": false,
          "internalType": "bool",
          "name": "goalMet",
          "type": "bool"
        }
      ],
      "name": "CampaignEnded",
      "type": "event"
    },
    {
      "anonymous": false,
      "inputs": [
        {
          "indexed": false,
          "internalType": "uint256",
          "name": "campaignId",
          "type": "uint256"
        },
        {
          "indexed": false,
          "internalType": "address",
          "name": "donor",
          "type": "address"
        },
        {
          "indexed": false,
          "internalType": "uint256",
          "name": "amount",
          "type": "uint256"
        }
      ],
      "name": "DonationReceived",
      "type": "event"
    },
    {
      "inputs": [],
      "name": "campaignCount",
      "outputs": [
        {
          "internalType": "uint256",
          "name": "",
          "type": "uint256"
        }
      ],
      "stateMutability": "view",
      "type": "function"
    },
    {
      "inputs": [
        {
          "internalType": "uint256",
          "name": "",
          "type": "uint256"
        }
      ],
      "name": "campaigns",
      "outputs": [
        {
          "internalType": "string",
          "name": "title",
          "type": "string"
        },
        {
          "internalType": "string",
          "name": "description",
          "type": "string"
        },
        {
          "internalType": "address payable",
          "name": "benefactor",
          "type": "address"
        },
        {
          "internalType": "uint256",
          "name": "goal",
          "type": "uint256"
        },
        {
          "internalType": "uint256",
          "name": "deadline",
          "type": "uint256"
        },
        {
          "internalType": "uint256",
          "name": "amountRaised",
          "type": "uint256"
        },
        {
          "internalType": "bool",
          "name": "ended",
          "type": "bool"
        }
      ],
      "stateMutability": "view",
      "type": "function"
    },
    {
      "inputs": [
        {
          "internalType": "string",
          "name": "_title",
          "type": "string"
        },
        {
          "internalType": "string",
          "name": "_description",
          "type": "string"
        },
        {
          "internalType": "address payable",
          "name": "_benefactor",
          "type": "address"
        },
        {
          "internalType": "uint256",
          "name": "_goal",
          "type": "uint256"
        },
        {
          "internalType": "uint256",
          "name": "_duration",
          "type": "uint256"
        }
      ],
      "name": "createCampaign",
      "outputs": [],
      "stateMutability": "nonpayable",
      "type": "function"
    },
    {
      "inputs": [
        {
          "internalType": "uint256",
          "name": "_campaignId",
          "type": "uint256"
        }
      ],
      "name": "donateToCampaign",
      "outputs": [],
      "stateMutability": "payable",
      "type": "function"
    },
    {
      "inputs": [
        {
          "internalType": "uint256",
          "name": "_campaignId",
          "type": "uint256"
        }
      ],
      "name": "endCampaign",
      "outputs": [],
      "stateMutability": "nonpayable",
      "type": "function"
    },
    {
      "inputs": [],
      "name": "owner",
      "outputs": [
        {
          "internalType": "address",
          "name": "",
          "type": "address"
        }
      ],
      "stateMutability": "view",
      "type": "function"
    },
    {
      "inputs": [],
      "name": "withdraw",
      "outputs": [],
      "stateMutability": "nonpayable",
      "type": "function"
    }
  ],
  "bytecode": "0x608060405234801561001057600080fd5b5033600260006101000a81548173ffffffffffffffffffffffffffffffffffffffff021916908373ffffffffffffffffffffffffffffffffffffffff16021790555061143c806100616000396000f3fe6080604052600436106100705760003560e01c80637274e30d1161004e5780637274e30d146100eb5780638da5cb5b146101165780639304d12414610141578063dd0408ae1461016a57610070565b8063141961bc146100755780633ccfd60b146100b857806342a4fda8146100cf575b600080fd5b34801561008157600080fd5b5061009c600480360381019061009791906108df565b610193565b6040516100af9796959493929190610a07565b60405180910390f35b3480156100c457600080fd5b506100cd610312565b005b6100e960048036038101906100e491906108df565b61040d565b005b3480156100f757600080fd5b50610100610519565b60405161010d9190610a84565b60405180910390f35b34801561012257600080fd5b5061012b61051f565b6040516101389190610ac0565b60405180910390f35b34801561014d57600080fd5b5061016860048036038101906101639190610c3c565b610545565b005b34801561017657600080fd5b50610191600480360381019061018c91906108df565b61070c565b005b60006020528060005260406000206000915090508060000180546101b690610d1e565b80601f01602080910402602001604051908101604052809291908181526020018280546101e290610d1e565b801561022f5780601f106102045761010080835404028352916020019161022f565b820191906000526020600020905b81548152906001019060200180831161021257829003601f168201915b50505050509080600101805461024490610d1e565b80601f016020809104026020016040519081016040528092919081815260200182805461027090610d1e565b80156102bd5780601f10610292576101008083540402835291602001916102bd565b820191906000526020600020905b8154815290600101906020018083116102a057829003601f168201915b5050505050908060020160009054906101000a900473ffffffffffffffffffffffffffffffffffffffff16908060030154908060040154908060050154908060060160009054906101000a900460ff16905087565b600260009054906101000a900473ffffffffffffffffffffffffffffffffffffffff1673ffffffffffffffffffffffffffffffffffffffff163373ffffffffffffffffffffffffffffffffffffffff16146103a2576040517f08c379a000000000000000000000000000000000000000000000000000000000815260040161039990610d9b565b60405180910390fd5b600260009054906101000a900473ffffffffffffffffffffffffffffffffffffffff1673ffffffffffffffffffffffffffffffffffffffff166108fc479081150290604051600060405180830381858888f1935050505015801561040a573d6000803e3d6000fd5b50565b80600080828152602001908152602001600020600401544210610465576040517f08c379a000000000000000000000000000000000000000000000000000000000815260040161045c90610e07565b60405180910390fd5b60008060008481526020019081526020016000209050600034116104be576040517f08c379a00000000000000000000000000000000000000000000000000000000081526004016104b590610e99565b60405180910390fd5b348160050160008282546104d29190610ee8565b925050819055507f0b5b4c52969ff7329ecf7ee536409fda87812b15a8622bc6e8cdeab3aee14a2683333460405161050c93929190610f1c565b60405180910390a1505050565b60015481565b600260009054906101000a900473ffffffffffffffffffffffffffffffffffffffff1681565b60008211610588576040517f08c379a000000000000000000000000000000000000000000000000000000000815260040161057f90610f9f565b60405180910390fd5b6001600081548092919061059b90610fbf565b9190505550600081426105ae9190610ee8565b90506040518060e001604052808781526020018681526020018573ffffffffffffffffffffffffffffffffffffffff16815260200184815260200182815260200160008152602001600015158152506000806001548152602001908152602001600020600082015181600001908161062691906111b3565b50602082015181600101908161063c91906111b3565b5060408201518160020160006101000a81548173ffffffffffffffffffffffffffffffffffffffff021916908373ffffffffffffffffffffffffffffffffffffffff160217905550606082015181600301556080820151816004015560a0820151816005015560c08201518160060160006101000a81548160ff0219169083151502179055509050507f02fe3fddd43aad14ae5c30d5d694f19ecb065dfde85bb591b91e8af1448724d26001548785846040516106fc9493929190611285565b60405180910390a1505050505050565b600080600083815260200190815260200160002090508060040154421015610769576040517f08c379a000000000000000000000000000000000000000000000000000000000815260040161076090611343565b60405180910390fd5b8060060160009054906101000a900460ff16156107bb576040517f08c379a00000000000000000000000000000000000000000000000000000000081526004016107b2906113af565b60405180910390fd5b60018160060160006101000a81548160ff0219169083151502179055508060020160009054906101000a900473ffffffffffffffffffffffffffffffffffffffff1673ffffffffffffffffffffffffffffffffffffffff166108fc82600501549081150290604051600060405180830381858888f19350505050158015610846573d6000803e3d6000fd5b507f2daeb9036523684d0097530a448d8d042ff2da258e6f6b7f30184fa0fd7bcf0a828260050154836003015484600501541015604051610889939291906113cf565b60405180910390a15050565b6000604051905090565b600080fd5b600080fd5b6000819050919050565b6108bc816108a9565b81146108c757600080fd5b50565b6000813590506108d9816108b3565b92915050565b6000602082840312156108f5576108f461089f565b5b6000610903848285016108ca565b91505092915050565b600081519050919050565b600082825260208201905092915050565b60005b8381101561094657808201518184015260208101905061092b565b60008484015250505050565b6000601f19601f8301169050919050565b600061096e8261090c565b6109788185610917565b9350610988818560208601610928565b61099181610952565b840191505092915050565b600073ffffffffffffffffffffffffffffffffffffffff82169050919050565b60006109c78261099c565b9050919050565b6109d7816109bc565b82525050565b6109e6816108a9565b82525050565b60008115159050919050565b610a01816109ec565b82525050565b600060e0820190508181036000830152610a21818a610963565b90508181036020830152610a358189610963565b9050610a4460408301886109ce565b610a5160608301876109dd565b610a5e60808301866109dd565b610a6b60a08301856109dd565b610a7860c08301846109f8565b98975050505050505050565b6000602082019050610a9960008301846109dd565b92915050565b6000610aaa8261099c565b9050919050565b610aba81610a9f565b82525050565b6000602082019050610ad56000830184610ab1565b92915050565b600080fd5b600080fd5b7f4e487b7100000000000000000000000000000000000000000000000000000000600052604160045260246000fd5b610b1d82610952565b810181811067ffffffffffffffff82111715610b3c57610b3b610ae5565b5b80604052505050565b6000610b4f610895565b9050610b5b8282610b14565b919050565b600067ffffffffffffffff821115610b7b57610b7a610ae5565b5b610b8482610952565b9050602081019050919050565b82818337600083830152505050565b6000610bb3610bae84610b60565b610b45565b905082815260208101848484011115610bcf57610bce610ae0565b5b610bda848285610b91565b509392505050565b600082601f830112610bf757610bf6610adb565b5b8135610c07848260208601610ba0565b91505092915050565b610c19816109bc565b8114610c2457600080fd5b50565b600081359050610c3681610c10565b92915050565b600080600080600060a08688031215610c5857610c5761089f565b5b600086013567ffffffffffffffff811115610c7657610c756108a4565b5b610c8288828901610be2565b955050602086013567ffffffffffffffff811115610ca357610ca26108a4565b5b610caf88828901610be2565b9450506040610cc088828901610c27565b9350506060610cd1888289016108ca565b9250506080610ce2888289016108ca565b9150509295509295909350565b7f4e487b7100000000000000000000000000000000000000000000000000000000600052602260045260246000fd5b60006002820490506001821680610d3657607f821691505b602082108103610d4957610d48610cef565b5b50919050565b7f4e6f742074686520636f6e7472616374206f776e657200000000000000000000600082015250565b6000610d85601683610917565b9150610d9082610d4f565b602082019050919050565b60006020820190508181036000830152610db481610d78565b9050919050565b7f43616d706169676e2068617320656e6465640000000000000000000000000000600082015250565b6000610df1601283610917565b9150610dfc82610dbb565b602082019050919050565b60006020820190508181036000830152610e2081610de4565b9050919050565b7f446f6e6174696f6e20616d6f756e742073686f756c642062652067726561746560008201527f72207468616e207a65726f000000000000000000000000000000000000000000602082015250565b6000610e83602b83610917565b9150610e8e82610e27565b604082019050919050565b60006020820190508181036000830152610eb281610e76565b9050919050565b7f4e487b7100000000000000000000000000000000000000000000000000000000600052601160045260246000fd5b6000610ef3826108a9565b9150610efe836108a9565b9250828201905080821115610f1657610f15610eb9565b5b92915050565b6000606082019050610f3160008301866109dd565b610f3e6020830185610ab1565b610f4b60408301846109dd565b949350505050565b7f476f616c2073686f756c642062652067726561746572207468616e207a65726f600082015250565b6000610f89602083610917565b9150610f9482610f53565b602082019050919050565b60006020820190508181036000830152610fb881610f7c565b9050919050565b6000610fca826108a9565b91507fffffffffffffffffffffffffffffffffffffffffffffffffffffffffffffffff8203610ffc57610ffb610eb9565b5b600182019050919050565b60008190508160005260206000209050919050565b60006020601f8301049050919050565b600082821b905092915050565b6000600883026110697fffffffffffffffffffffffffffffffffffffffffffffffffffffffffffffffff8261102c565b611073868361102c565b95508019841693508086168417925050509392505050565b6000819050919050565b60006110b06110ab6110a6846108a9565b61108b565b6108a9565b9050919050565b6000819050919050565b6110ca83611095565b6110de6110d6826110b7565b848454611039565b825550505050565b600090565b6110f36110e6565b6110fe8184846110c1565b505050565b5b81811015611122576111176000826110eb565b600181019050611104565b5050565b601f8211156111675761113881611007565b6111418461101c565b81016020851015611150578190505b61116461115c8561101c565b830182611103565b50505b505050565b600082821c905092915050565b600061118a6000198460080261116c565b1980831691505092915050565b60006111a38383611179565b9150826002028217905092915050565b6111bc8261090c565b67ffffffffffffffff8111156111d5576111d4610ae5565b5b6111df8254610d1e565b6111ea828285611126565b600060209050601f83116001811461121d576000841561120b578287015190505b6112158582611197565b86555061127d565b601f19841661122b86611007565b60005b828110156112535784890151825560018201915060208501945060208101905061122e565b86831015611270578489015161126c601f891682611179565b8355505b6001600288020188555050505b505050505050565b600060808201905061129a60008301876109dd565b81810360208301526112ac8186610963565b90506112bb60408301856109dd565b6112c860608301846109dd565b95945050505050565b7f43616d706169676e20646561646c696e6520686173206e6f742079657420706160008201527f7373656400000000000000000000000000000000000000000000000000000000602082015250565b600061132d602483610917565b9150611338826112d1565b604082019050919050565b6000602082019050818103600083015261135c81611320565b9050919050565b7f43616d706169676e2068617320616c726561647920656e646564000000000000600082015250565b6000611399601a83610917565b91506113a482611363565b602082019050919050565b600060208201905081810360008301526113c88161138c565b9050919050565b60006060820190506113e460008301866109dd565b6113f160208301856109dd565b6113fe60408301846109f8565b94935050505056fea2646970667358221220d147c4d8da6052810859cffa5f20aa23a45a1368798c872453f61d365473e1e864736f6c63430008180033",
  "linkReferences": {},
  "deployedLinkReferences": {}
}